:020000040800F2
:10000000F80800203D020008653500084D2500086D
:10001000DB300008291F0008734A000800000000B8
:10002000000000000000000000000000B5400008D3
:10003000E71F0008000000009D3F0008C9410008BC
:10004000570200085702000857020008570200082C
:10005000570200085702000857020008570200081C
:10006000570200085702000857020008570200080C
:1000700057020008570200085702000857020008FC
:1000800057020008570200085702000857020008EC
:1000900057020008570200085702000857020008DC
:1000A00057020008570200085702000857020008CC
:1000B00057020008570200085702000857020008BC
:1000C00057020008570200085702000857020008AC
:1000D00057020008D1470008570200085948000895
:1000E00057020008570200085702000800F002F803
:1000F00000F094F80AA090E8000C82448344AAF12E
:100100000107DA4501D100F089F8AFF2090EBAE82B
:100110000F0013F0010F18BFFB1A43F0010318473B
:10012000D86E0000F86E0000103A24BF78C878C17D
:10013000FAD8520724BF30C830C144BF04680C60ED
:10014000704700000023002400250026103A28BF35
:1001500078C1FBD8520728BF30C148BF0B60704739
:100160006E2900F0F584702900F0E781662906F019
:100170000B86652906F00886672906F00586612941
:10018000AFF3008003681B0A28BF41F08001692992
:1001900000F05881642900F05581752900F05281E2
:1001A0006F2900F0F287782900F0B381E92900F087
:1001B0008D87E42900F08A87F52900F08787EF29E9
:1001C00000F0EF87F82900F0B2810368DB0928BF4F
:1001D00041F08001632900F00E87732900F0138736
:1001E000E32901F0D380F32901F0D8800020704783
:1001F0001FB59DE8030000F0FFFB01F019F80400B3
:100200000020002105F0EEFF401C6060002000216E
:1002100005F0FEFFE0601FBD10B510BD01F0ACF9A8
:100220001146FFF7E5FF04F0E9FE01F0D8F903B449
:10023000FFF7F2FF03BC01F049FA000009488047CC
:1002400009480047FEE7FEE7FEE7FEE7FEE7FEE7B8
:10025000FEE7FEE7FEE7FEE704480549054A064BD0
:1002600070470000CD410008ED000008F8020020B2
:10027000F8080020F8040020F804002070B50646B5
:1002800000F09AFB056806F10B0020F00704B44269
:100290009CBF002070BD2B466A68BAB11068A042AE
:1002A00010D304F1080188423CBF5068586007D35E
:1002B0005168101941601168091B01605860146091
:1002C000101D70BD13465268002AE7D1214628460A
:1002D00000F07EFB0028DED170BD70B50446051F1E
:1002E00000F06AFB0068002C14BF446870BD002C4D
:1002F00018BFAC423CBF20466468F8D301680A18B6
:10030000AA4218BF456003D12A680546114401601E
:1003100028684119A1421CBF6C6070BD61686960AA
:1003200021680844286070BD10B5044600F03CFB0D
:100330000068005DC00602D504F1200010BD204613
:1003400010BD00007CB51D4616460C00009001D083
:100350002044401E074B7B442A46694601903046A4
:1003600000F01FFE05461CB10020694600F02CFE7F
:1003700028467CBD790C00000FB41CB5084B06AABA
:100380007B4469460090059800F00BFE044600206F
:10039000694600F019FE20461CBC5DF814FB000005
:1003A000450C000070B5044685690068C10601D59A
:1003B000302600E02026C00707D070BDD4E9012117
:1003C00030469047206A401C20626D1EF6D570BDF5
:1003D00070B5044685690078C00707D170BDD4E9BF
:1003E000012120209047206A401C20626D1EF6D516
:1003F00070BD70B50C460546012A05D028788006E8
:1004000000D5EA69002302E0012305E05B1C93426A
:1004100002D2E05C0028F9D1A869E618C01AA861E8
:10042000286A184428622846FFF7BCFF04E0D5E993
:10043000012114F8010B9047B442F8D32846FFF786
:10044000C7FF70BD2DE9F0410646002410687529EC
:10045000314616A510D000F010FB002802DA404209
:1004600013A507E031688A0701D512A502E0490704
:1004700004D511A5012401E000F008FB00210A22A7
:1004800006F1240709E0B0FBF2FCB0FBF2F302FB3B
:100490001C00303078541846491C0028F3D12346FC
:1004A0002A463046BDE8F04100F0F9BA00000000ED
:1004B0002D0000002B00000020000000F0B40D46CD
:1004C0000188090502D5214C7C4402E01F4C7C4484
:1004D0000E34002100F1240608E002F00F07120993
:1004E000E75D42EA03721B097754491C52EA03078D
:1004F000F3D102780023120704D5702D06D009B17C
:10050000022311342246F0BC00F0C9BA0123103492
:10051000F8E770B504460D462146106800F0B6FABB
:10052000024629462046BDE870400023C6E7D21D9A
:1005300022F00703D3E90023C0E70368126843F001
:10054000200303600823C3610023B7E7BB690000F1
:100550002DE9F05F894604464FF0000ADFF874B1D8
:10056000FB44C0F820A02046E1688847002874D0EA
:10057000252806D0D4E901219047206A401C20623A
:10058000F1E700265F462046E168884720280546B7
:1005900007DB312D05D2781910F8200C08B106437D
:1005A000F1E7B00701D526F00406C4F81CA0002727
:1005B000C4F818A02A2D09D0284604F019FC38B335
:1005C00004EB8708303DC8F8185019E059F8041BAF
:1005D000204604EB87029161E1688847012F0546B8
:1005E00018D1E069002820DA26F020061DE0D8F8AE
:1005F000180000EB800005EB40003038C8F8180008
:100600002046E1688847054604F0F2FB0028EED159
:10061000012F0AD02E2D08D12046E16888477F1C83
:100620000546022F46F02006C4DBA069002803DA45
:10063000404246F00106A061F00701D026F0100606
:100640006C2D0BD0682D09D04C2D39D06A2D35D0AA
:10065000742D35D07A2D33D016E038E0E1682F467E
:1006600020468847B842054609D16C2F26D04FF462
:100670008060E168064320468847054604E06C2F09
:100680001AD04FF4807006430DB3A5F1410019282C
:1006900002D8203546F400664A46294620462660A0
:1006A0004E46FFF75DFD80B101280BD0F61D26F008
:1006B000070000F1080956E74020E4E78020D8E76A
:1006C0000020D6E706F104094DE7284652E7206AE4
:1006D000BDE8F09F4B69000070B5064600F070F968
:1006E0000468054630460A22002100F065FD2C60B2
:1006F00070BD401ECAB210F8011F8A4202D0002904
:10070000F9D10020704710B5431E13F8014F002C9B
:10071000FBD105E011F8014B002C03F8014B03D08D
:10072000521EF7D20021197010BD30B505460B4698
:100730002A4613F8014B12F8010B08B1A042F8D079
:100740001CB1002802D06D1CF1E7284630BD10B561
:10075000431C02E010F8011B71B18107FAD14FF080
:10076000013202C88C1A8C4314EAC211F9D0C01AA3
:100770000A0603D0C01E10BDC01A10BD0A0401D065
:10078000801E10BD0902FCD0401E10BD40EA0103CE
:1007900070B59B072ED14FF00136042A2AD308C822
:1007A00010C99D1B9D43121F15EAC61517D0D8B25C
:1007B000E1B2401A50EA056110D198B2A1B2401AD4
:1007C00050EA05410AD123F07F4024F07F41401ACE
:1007D00050EA052102D1180EA0EB146070BDA342AF
:1007E000DBD018BA21BA884201D9012070BD4FF080
:1007F000FF3070BD0AB9002070BD10F8013B11F840
:10080000014B63B1A3420AD1521E08D010F8013B3C
:1008100011F8014B1BB1A34201D1521EEDD1181B9F
:1008200070BD032A40F2308010F0030C00F01580F8
:1008300011F8013BBCF1020F624498BF11F801CBE3
:1008400000F8013B38BF11F8013BA2F1040298BF48
:1008500000F801CB38BF00F8013B11F0030300F0B2
:100860002580083AC0F0088051F8043B083A51F856
:1008700004CBA0E80810F5E7121D5CBF51F8043B5B
:1008800040F8043BAFF30080D20724BF11F8013BCE
:1008900011F801CB48BF11F8012B24BF00F8013B30
:1008A00000F801CB48BF00F8012B704710B5203A83
:1008B000C0F00B80B1E81850203AA0E81850B1E819
:1008C0001850A0E81850BFF4F5AF5FEA027C24BFCF
:1008D000B1E81850A0E8185044BF18C918C0BDE8C6
:1008E00010405FEA827C24BF51F8043B40F8043B8F
:1008F00008BF7047D20728BF31F8023B48BF11F844
:10090000012B28BF20F8023B48BF00F8012B70479D
:100910004FF000020429C0F0128010F0030C00F028
:100920001B80CCF1040CBCF1020F18BF00F8012BA6
:10093000A8BF20F8022BA1EB0C0100F00DB85FEA74
:10094000C17C24BF00F8012B00F8012B48BF00F840
:10095000012B70474FF0000200B5134694469646AF
:10096000203922BFA0E80C50A0E80C50B1F12001C2
:10097000BFF4F7AF090728BFA0E80C5048BF0CC070
:100980005DF804EB890028BF40F8042B08BF7047CE
:1009900048BF20F8022B11F0804F18BF00F8012B40
:1009A000704770477047704710B500F041FC001D5C
:1009B00010BD00BF3158000000487047A002002061
:1009C0000048704798020020704770477047704792
:1009D00038B504460A4600206946AFF30080002877
:1009E00008BF38BD02460099204600F025FC0120D2
:1009F00038BD012000F0B8BDF8B5AFF30080054662
:100A000000200C46102000BF0646A819A0420DD9B0
:100A1000324669460020AFF30080070008BF00F0AF
:100A2000A3FD0098A04218BF0546C419FFF7C4FFF4
:100A300005600746F01D20F007004619284600F023
:100A40000AF8B44208BFF8BDA21B31463868BDE8B9
:100A5000F84000F0F1BB00210160C0E901107047CF
:100A60001020704710B5FFF7ABFF006810BD10B540
:100A70000446FFF7A5FF046010BD09684A0501D5CB
:100A800040B27047C905FCD500B2704709684A05F5
:100A900001D5C0B27047C905FCD580B270472DE9B9
:100AA000F0470D4699469246044600F12408016835
:100AB000880604D5E06921F01001216000E00120E2
:100AC000A84201DD471B00E00027A1697A1902EB6B
:100AD0000900081AA0612078C00602D42046FFF75A
:100AE00061FC002608E0D4E901211AF806009047CD
:100AF000206A401C761C20624E45F4DB2078C0063C
:100B00000AD52046FFF74EFC06E0D4E9012130204B
:100B10009047206A401C2062381EA7F10107F4DCD0
:100B200007E0D4E9012118F805009047206A401C2D
:100B30002062281EA5F10105F3DC2046FFF748FCE2
:100B40002078000602D50220BDE8F0870120FBE7EF
:100B500011680268006A530501D508700AE0D305E0
:100B600001D5088006E0130603D5C217C1E90002CB
:100B700000E008600120704770472DE9FF4F0C46E8
:100B80001E464FF0FF378BB0D2E90001DDF86080E0
:100B90000A908A46C1F30A5505B93D460021084628
:100BA0004FF00000BAF1000F00F4400005DA00EB4E
:100BB00080004FF4400101EA50004FEA9059B9F12A
:100BC000010F00DDB9460A9850EA4A000ED044F6FB
:100BD0001050A5F2FF3545432F14B8F1000F1ED079
:100BE0007542291E1EDDC9F100021CE0B8F1010F9B
:100BF0004FF0000001D0302103E0F24305E0215422
:100C0000401CB042FBDB30460022002121540B99EE
:100C1000C1F80880C1E900200FB0BDE8F08FBD1B0E
:100C20006D1CDEE74A4600DA694206A800F00AFCBD
:100C300006AB93E8070003AB83E8070050460A9928
:100C400000F06AFD8DE80700A0F500501F38009005
:100C50000398002D0ADD42F21F014A460844002392
:100C600003A90390684600F0D3FF09E0A0F5005007
:100C70004A461F38002303A90390684600F0DDFFB1
:100C80008DE807000004000C03D04FF0FF3041084E
:100C900000E01046B8F1000F03D000220092154684
:100CA0001EE0751E05D400F0E1FA303262556D1E6B
:100CB000F9D5B3460122084302D000227F1C04E08C
:100CC0002078302801D100227F1E002A099784D085
:100CD0001DE0112D07DA00F0C9FA303262556D1CA3
:100CE00050EA0102F5D1084302D00098C8B10EE0E5
:100CF0000021681E05E0235C625C63542254401EA0
:100D0000491C8142F7DBAB46A81B401E099000201E
:100D100004F80B000B98099AC0F80880C0E9002B72
:100D20007AE711264FF0000857E72DE9F04F884683
:100D30000446D21D22F0070191B0D1E90001CDE9AE
:100D40000A0103F0CBFF02460B98C00F01D02D2003
:100D500007E02068810701D52B2002E0202101EA6D
:100D6000C000032A099001D0072A05DB034641464B
:100D7000204600F0C1FA0BE12078800601D5E06939
:100D800000E00620B8F1650F814606D0B8F1660F85
:100D900018D0B8F1670F70D131E00020B9F1110F10
:100DA000009001DB112301E009F101030AAA01A966
:100DB0000CA8FFF7E2FEDDE90C70002609F1010541
:100DC000834647E001204B4600904FF000470AAAB7
:100DD00001A90CA8FFF7D1FEDDE90DB00C995D4625
:100DE000002610B909F101000D18B9EB050003D474
:100DF000C0F1FF3609F10105A5EB09002BE0B9F1BF
:100E0000010F01DA4FF001090020B9F1110F009034
:100E1000484601DD112300E003460AAA01A90CA8F7
:100E2000FFF7ABFEDDE90C704D46002683462078C7
:100E300000070AD4AB4500DA5D4601A8012D04DDA8
:100E4000411911F8011C302907D04F4502DA17F17A
:100E5000040F04DA012082460FE06D1EEEE7002F3A
:100E600002DCED1B3E4403E0781CA84200DD7D1C43
:100E7000B81B00F1010A4FF000472078000703D4A7
:100E8000AA4501DB4FF0FF3A0021B7F1004F0DF109
:100E900043088DF8431024D002202B23002F01DAC1
:100EA0007F422D230A21021EA0F1010000DC5FB168
:100EB00097FBF1FC97FBF1F201FB1C7C17460CF150
:100EC000300C08F801CDEEE7A8F10100037021888D
:100ED000090501D5452100E06521A0F1010800F8D0
:100EE000011C09980FA9A1EB0807FF1D00B1012003
:100EF000411901EBEA70A1693844081A401EA0614B
:100F00002078C00602D42046FFF74CFA099828B191
:100F1000D4E901219047206A401C20622078C00655
:100F200022D52046FFF73EFA1EE0002E04DBB34533
:100F300002DD01A8805D00E03020D4E90121904766
:100F4000206A401C2062761CAAF101005FEA000AB8
:100F50000AD100F06DF9C0680168405CD4E9012154
:100F60009047206A401C2062281EA5F10105DCDCA8
:100F700007E0D4E9012118F8010B9047206A401CD2
:100F80002062381EA7F10107F3DC2046FFF720FAA4
:100F9000032011B041E6000001694A1C0261087893
:100FA000704700B58FB0CDE90131002105910549A9
:100FB0007944CDE9031011466846FFF7C9FA0FB02E
:100FC00000BD0000E5FFFFFF0A6802F8010B0A60A0
:100FD0007047D1E900239A4202D2531C0B60107073
:100FE000704710B5436913B1AFF3008001E0FFF71C
:100FF00000FA012010BD127800F124010A700022CD
:101000004A700122EDE711684FF0FF32E9E7000076
:101010002DE9FF5F15468A460446DFF8AC80F844A8
:101020000027D8E900103E46CDE9001010E03AF85C
:1010300016106A4602A800F077FA411C07D0217802
:10104000890603D5E269391891420DD80744761C08
:101050002078800602D5E069B84205DDAE42E6DBC5
:101060003AF816000028E2D1A069C01BA061204612
:10107000FFF798F9D8E90010CDE90010002017E03B
:101080003AF818106A4602A800F04EFAB0F1FF3F95
:1010900081460BD000250DF1080B05E0D4E90121B4
:1010A0001BF8050090476D1C4D45F7D308F1010072
:1010B000B0428046E4DB206A384420622046FFF7D5
:1010C00087F9BDE8FF9F0000265F00002DE9F04191
:1010D0008046D21D22F007020025D2E90002F52940
:1010E00015A614D0011E72F1000106DA0023D0EB20
:1010F000030063EB020211A608E0D8F800108B078A
:1011000001D50FA602E0490701D50EA6012511461B
:10111000002408F1240704E000F0A8F830323A5522
:10112000641C50EA0102F7D12B4632462146404664
:10113000BDE8F041FFF7B3BC000000002D00000047
:101140002B0000002000000030B4002100F1240436
:1011500008E002F00705D208303542EA4372DB08A6
:101160006554491C52EA0305F3D10468002310A218
:10117000250707D5A40600D421B1C46901230DA217
:10118000641EC46130BCFFF78ABC10B5044621461A
:101190001068FFF77BFC02462046BDE810400023A4
:1011A000D2E7D21D22F00701D1E90023CCE70000ED
:1011B00000000000300000002DE9F04791460F4686
:1011C00080460446002614F8015B2DB1FFF7ECFBC6
:1011D0000068405DC007F6D12B2D02D02D2D18D010
:1011E000641E4A463946204600F0DCF827B13968CB
:1011F000A14201D1C7F800804FF0020471050BD560
:101200004042002803DDFFF7DBFB0460A007BDE8D8
:10121000F08746F48066E4E70028F8DAFFF7D0FBB1
:1012200004606FF00040F2E7004870479802002029
:1012300000487047B8020020034640688C460028EA
:1012400018BF88423CBF03464068F8D3186818446A
:10125000884207D00CF1030020F00700001D411A5E
:10126000521A0146081D0A60FFF737B830B5B0F1D1
:101270000A024FEA900E71F100034EEA817EB0EB54
:101280000E0061EB91014FEA101E4EEA017E10EB59
:101290000E0041EB11114FEA102E4EEA016E10EBD9
:1012A0000E0041EB11214FEA104E4EEA014E10EBB9
:1012B0000E0041EB1141401841F100014FEAD0000E
:1012C00040EA41704FEAD10110EB80054FEA8104FA
:1012D00044EA907444EB01046D1944EB0404521B7E
:1012E000A3414FF0000348BF0A3200D530BD401C77
:1012F00041F1000130BD00002DE9F0411F460446D8
:1013000003260168072A01F4006004DB08B116A572
:1013100005E016A503E008B115A500E015A521F02C
:1013200010002060A069C01EA0610FB1401EA06126
:101330002046FFF737F84FB1D4E9012138469047EE
:10134000206A401C2062C01C206206E0206AFAE786
:10135000D4E9012115F8010B9047761EF8D22046FA
:10136000FFF736F8BDE8F0814E414E006E616E0029
:10137000494E4600696E660010B5436913B1AFF37C
:10138000008001E0FFF744FE012010BD128800F14B
:10139000240182840022C2840122EDE711684FF00B
:1013A000FF32E9E72DE9F05F824615468B460027BC
:1013B0000AF10104B9460078302801D09DB113E04C
:1013C00014F8010B0127782803D0582801D045B123
:1013D0000AE00DB1102D07D1002714F8010B1025DC
:1013E00002E0082500E00A250026B0460EE005FBD5
:1013F000080005FB06F101271FFA80F801EB1046F3
:10140000B6F5803F00D3B94614F8010B294600F029
:10141000D8F80028EBDABBF1000F05D00FB1641E3D
:1014200000E05446CBF80040B9F1000F06D0FFF7BA
:10143000C7FA02210160C81EBDE8F09F48EA0640D5
:10144000FAE700002DE9F047814616468AB0354894
:1014500078440DC88DE80D0032487844801C03ACF8
:101460000DC884E80D0041F69B300844372190FBFD
:10147000F1F290FBF1F5A5F1800501FB12041B3C94
:1014800002D56442012000E00020DFF898A08046E9
:101490000027FA44AAF1BE0A0EE0E0070AD032465D
:1014A000684607EB470101230AEB810100F0C5FB09
:1014B0008DE8070064107F1C002CEED1194F7F448B
:1014C000AE3F19E0E80715D007EB04100DF1180A3C
:1014D00090E80E008AE80E00C068F04201D1981929
:1014E00008903246012306A903A800F0A6FB03AB2F
:1014F00083E807006D10641C002DE3D14FF0010359
:1015000032466946B8F1000F03A802D000F080FB14
:1015100001E000F092FBC9E90001C9F808200AB017
:10152000BDE8F087805B000070B516460C460546A6
:10153000FFF73AFA036893F80101012806D0FF2C5F
:101540000FD8185D68B101202C7070BDD3F8070169
:101550003246214603F2071303442846BDE8704093
:1015600018474FF0FF3070BD10B500F047F8BDE8E8
:10157000104000F03DB870477546FFF755FEAE4687
:1015800005006946534620F00700854618B020B58F
:10159000FEF762FEBDE820404FF000064FF0000766
:1015A0004FF000084FF0000B21F00701AC46ACE80B
:1015B000C009ACE8C009ACE8C009ACE8C0098D4678
:1015C00070473A2800D2303820F02002412A01D357
:1015D000A2F13700884201D34FF0FF30704710B5B9
:1015E0000446AFF300802046BDE81040FEF71FBE62
:1015F000002801D000F06AB87047000010B501283B
:1016000005D0002103A000F067F8012010BD09A15A
:10161000F8E7000053494752544D454D3A204F7565
:1016200074206F662068656170206D656D6F7279DA
:10163000000000003A2048656170206D656D6F7292
:101640007920636F72727570746564004FF0013CAD
:1016500050F8042B51F8043B9A4221D1A2EB0C0321
:10166000934313EACC1317D150F8042B51F8043BE1
:101670009A4215D1A2EB0C03934313EACC130BD17E
:1016800050F8042B51F8043B9A4209D1A2EB0C0309
:10169000934313EACC13DBD04FF00000704700BF38
:1016A000D01A01BAB1FA81F101F0180122FA01F061
:1016B000CB40C1F12001DBB2C0B2C01A2CFA01F359
:1016C000D11A914311EAC311E6D17047014918209C
:1016D000ABBEFEE72600020070B505460C460A20A8
:1016E00000E06D1C00F011F835B128780028F8D121
:1016F00002E0641C00F009F814B120780028F8D149
:10170000BDE870400A20AFF3008008B569468DF847
:1017100000000320ABBE08BD5FEA400C08BF91F09B
:10172000000F4FEA8C234FEAC12243EA51514FEA9E
:101730001C5018BF00F5F0404FEA300018BF41F0D0
:1017400000415FEA6C5C00F02980BCF1FF3F08BFFC
:1017500040F080407047130C06BF12044FF0100C8D
:101760004FF0000C130E04BF12020CF1080C130F03
:1017700004BF12010CF1040C930F04BF92000CF192
:10178000020CD30F04BF52000CF1010C11464FF0B4
:101790000002A0F11F00A0EB0C00704711F0004FF9
:1017A00008BF704731F000413FF4D5AF0B0C06BFC6
:1017B00009044FF0100C4FF0000C0B0E04BF09028F
:1017C0000CF1080C0B0F04BF09010CF1040C8B0F7A
:1017D00004BF89000CF1020CCB0F04BF49000CF1CF
:1017E000010CCCF12003A0EB0C0022FA03F302FA67
:1017F0000CF241EA030100F10100704720F07F4C38
:1018000080EA030023F07F47ACEB070303F57C532A
:1018100000F0004003F1FF032DE980494FEA154B2A
:1018200009B44FEA144325EA0B4E24EA03480FF2A9
:10183000042606EB132749083E785FEA320203FBD1
:101840000667C7F5000707FB06F64FEA54374FEA6D
:10185000D64606F1020607FB066CCCF1005C4FEAA7
:101860001C472CEA074C07FB06F40CFB06F504EBBF
:1018700015464FEA961634BF00204FF000404FEA5D
:10188000D13706FB07FC4FEA1C4C0CFB0BF7D21BB5
:1018900003FB0CF761EB07010CFB0EF7B0EB074005
:1018A00072EB17420CFB08F734BFA2EB0742B2EB16
:1018B000074261EB17414FEA0C444FEA910706FBE0
:1018C00007FC4FEA1C4C0CFB0BF7B0EBC74072EB6C
:1018D000573203FB0CF734BFA2EBC742B2EBC7424F
:1018E00061EB57310CFB0EF7B0EBC70072EB577290
:1018F0000CFB08F734BFA2EBC702B2EBC70261EBE7
:101900005771039F4FEA816141EA921104EBCC04C5
:101910004FEAD1374FEA826206FB07FC42EA901297
:101920004FEA80604FEA1C4C0CFB0BF7D21B03FB09
:101930000CF761EB07010CFB0EF7B0EB074072EB05
:1019400017420CFB08F734BFA2EB0742B2EB074289
:1019500061EB17414FEA8C554FEA910704EB9C2449
:1019600006FB07FC4FEA1C4C0CFB0BF7B0EBC74027
:1019700072EB573203FB0CF734BFA2EBC742B2EB5A
:10198000C74261EB57310CFB0EF7B0EBC70072EBAF
:1019900057720CFB08F734BFA2EBC702B2EBC702C9
:1019A00061EB577115EB4C254FEA816141EA9211C9
:1019B0004FEA82624FEAD13742EA901206FB07FCF7
:1019C00044F100044FEA80604FEA1C4C0CFB0BF71B
:1019D000D21B03FB0CF761EB07010CFB0EF7B0EB1E
:1019E000074072EB17420CFB08F734BFA2EB07422B
:1019F000B2EB074261EB174115EB1C154FEA813141
:101A000041EA92414FEA823242EA90424FEA803004
:101A10004FEA0C7644F1000448EA03434EEA0B48CF
:101A20004FF0000EB2EB080C71EB030724BF6246C7
:101A300039464EEB0E0E4FF0000B00185241494153
:101A40004BEB0B0BB2EB080C71EB03077BF1000BBC
:101A500024BF624639464EEB0E0E4FF0000B0018C5
:101A6000524149414BEB0B0BB2EB080C71EB0307F6
:101A70007BF1000B24BF624639464EEB0E0E51EA55
:101A8000020718BF46F0010616EB0E7655F100026C
:101A900054F1000103D5BDE88901BDE80088BDE827
:101AA0008901BDE80048B619524141EB0101A3F19B
:101AB0000103704780807F7E7D7C7B7A79787776A2
:101AC00076757473727171706F6E6E6D6C6C6B6A1B
:101AD0006A696868676666656464636362616160B9
:101AE000605F5F5E5E5D5D5C5C5B5B5A5A59595836
:101AF00058575756565555555454535352525251A0
:101B0000515050504F4F4F4E4E4D4D4D4C4C4C4BF5
:101B10004B4B4A4A4A49494948484847474747463C
:101B20004646454545444444444343434342424278
:101B300042414141002B9C4630D477002BD01CB54C
:101B40004FEA370703B44FF010004FF01001BAF11D
:101B5000000F06D0BCF1000FDCBF40F0080040F0E1
:101B600008014FF000000FBCBDE810400BF1010B65
:101B7000BBF1010F08BF5FEA170722BF12F1010294
:101B800011F101014FF0004143F1000300F000406A
:101B900043EA00007047F9D35708D0E746EA064603
:101BA00013F1400F4FEA16461FDD13F1200FDFBF80
:101BB00016430A46002120335B42BED0C3F1200702
:101BC00046EA064602FA07F74FEA164646EA0706CD
:101BD000C3F1200722FA03F201FA07F721FA03F111
:101BE0004FF0000342EA0702A7E746EA020646EA88
:101BF00006464FEA164646EA0106BCBF46EA0646D6
:101C0000360C4FF000034FF000024FF0000194E754
:101C10002DE9804C9A46934670B491E8380007C885
:101C200031EA400C48BF34EA430C03D5FFF7E6FD28
:101C3000FFF780FFF0BCBDE8008C2DE9804C9A4690
:101C4000934670B491E8380007C810F0804F08BF81
:101C500013F0804F03D100F005F8FFF76BFFF0BCE5
:101C6000BDE8008C20F07F4780EA030023F07F4C22
:101C700007EB0C03A3F57C5300F00040A3F1FE0337
:101C800092F0000F00F0B38095F0000F00F0778025
:101C90002DE901494FEA11404FEA144621EA004874
:101CA00000FB06FC24EA064708FB06F607FB08F8DB
:101CB00000FB07F718EB06484CEB164C4FEA124BAB
:101CC00018EB07484FEA15464CEB174022EA0B4E3B
:101CD0000BFB06FC25EA06470EFB06F607FB0EFE8D
:101CE0000BFB07F71EEB064E4CEB164C4FF00006B5
:101CF0001EEB074E4CEB174B18EB0B0840F10000A6
:101D000018EB0E0B58EB000840F100008F1A4FF053
:101D100000013CBFC943661B14BFB5EB040C002196
:101D20003CBFC943F61B4FEA17444EEA8E0E27EA22
:101D300004454FEA1C4704FB07622CEA074C05FBED
:101D400007F70CFB05F604FB0CFC16EB074642EB11
:101D5000174216EB0C4642EB1C421BEB060658EBF7
:101D60000202414146EA9E0601D5BDE80189B61945
:101D7000524141EB0101A3F10103BDE801894FEAA2
:101D800014454FEA114724EA054621EA074C05FBB2
:101D900007F406FB07F70CFB06F105FB0CFC11EB47
:101DA000074144EB17444FEA124711EB0C4144EB57
:101DB0001C4422EA074C05FB07F206FB07F70CFB65
:101DC00006F605FB0CFC16EB074642EB174216EB3A
:101DD0000C4642EB1C456A1854F1000148BF70479D
:101DE000B619524141EB0101A3F10103704795F08F
:101DF000000F37D04FEA11424FEA144721EA02465A
:101E000024EA074C02FB07F106FB07F70CFB06F47C
:101E100002FB0CFC14EB074441EB17414FEA15475A
:101E200014EB0C4441EB1C4125EA074C02FB07F57F
:101E300006FB07F70CFB06F602FB0CFC16EB07464D
:101E400045EB174516EB0C4645EB1C42121951F1B8
:101E5000000148BF7047B619524141EB0101A3F19F
:101E6000010370474FEA14454FEA114724EA05463B
:101E700021EA074C05FB07F106FB07F70CFB06F20E
:101E80004FF0000605FB0CFC12EB074241EB17413B
:101E900012EB0C4251EB1C4148BF7047921841EBCA
:101EA0000101A3F10103704710B500F05DFA1D4870
:101EB0000078072803D1642000F082F830E0194848
:101EC0000078062803D017480078042803D1C820DA
:101ED00000F058F824E013480078032803D0114894
:101EE0000078012803D1C82000F03DF818E00D4823
:101EF0000078052802D00B48007870B9C82000F09F
:101F000050F84FF4967003F04FF8C82000F02BF80B
:101F10004FF4967003F048F802E0642000F050F8A7
:101F200010BD00000500002000BFFEE700B503461D
:101F300063B9002001F064F9002001F0D1F800201D
:101F400001F080FA002001F0EDF90BE0012001F032
:101F500057F9012001F0C4F8012001F073FA0120C3
:101F600001F0E0F900BD10B50446204601F08CF9FF
:101F7000204601F0F9F8204601F0CEFA204601F0A3
:101F80003BFA10BD10B50446204601F0A3F92046E7
:101F900001F010F9204601F099FA204601F006FA06
:101FA00010BD10B50446204601F094F9204601F01A
:101FB00001F9204601F0B0FA204601F01DFA10BDEB
:101FC00010B50446204601F05FF9204601F0CCF838
:101FD000A4F10A01C8B201F079FAA4F10A01C8B269
:101FE00001F0E4F910BD704710B580210348FEF7F9
:101FF0008FFC00200249088010BD00005000002026
:102000003000002070B50546002400BF00F080F9C4
:1020100080B90DA10E48FEF788FB044654B13A2161
:102020002046FEF766FB044614B1641C204670BDD2
:102030000020FCE7052002F0B7FF681E85B2002DE6
:10204000E4DC0020F3E700004950442C00000000CD
:102050005000002008B50121082001F0B1FF102038
:102060008DF803008002ADF8000003208DF8020017
:1020700069463D4800F086F900224FF480413A4815
:1020800000F05FFAFA2002F08FFF01229103364838
:1020900000F057FA4FF4FA7002F086FFFFF7A4FF42
:1020A00032A1344802F096FD03E04FF4FA7002F0DA
:1020B0007BFF31A131A000F0DDF80028F5D131A17E
:1020C0002C4802F087FD2EA131A000F0D3F84FF488
:1020D000FA7002F069FF2AA130A000F0CBF84FF4AB
:1020E000FA7002F061FF31A1224802F073FD03E0B3
:1020F0004FF4FA7002F058FF1FA12FA000F0BAF8B9
:102100000028F5D130A11B4802F064FD03E04FF434
:10211000FA7002F049FF18A12FA000F0ABF80028D8
:10212000F5D131A1134802F055FD03E04FF4FA70E8
:1021300002F03AFF2FA131A000F09CF80028F5D161
:1021400036A10C4802F046FD03E04FF4FA7002F0AD
:102150002BFF36A137A000F08DF80028F5D13FA164
:10216000044802F037FD08BD00100140302E204128
:10217000540D0A00003801404F4B000041540D0A35
:1021800000000000312E205253540D0A00000000C0
:1021900041542B5253540D0A0000000041542B436C
:1021A0004950434C4F53450D0A000000322E204346
:1021B000574D4F44450D0A0041542B43574D4F4452
:1021C000453D310D0A000000332E2041542B43576A
:1021D000444843500D0A000041542B4357444843A0
:1021E000503D312C310D0A00342E2043574A4150C6
:1021F0000D0A0000474F54204950000041542B4322
:10220000574A41503D22686868222C22717133324E
:102210003138343238220D0A00000000352E2043B8
:10222000495053544152540D0A000000434F4E4E42
:102230004543540041542B43495053544152543D5B
:1022400022544350222C227777772E6E736A632EA6
:1022500078797A222C313838330D0A00362E204511
:1022600053503832363620496E6974204F4B0D0A70
:10227000000000002DE9F04104460D46C826204626
:10228000FEF765FA87B23A4621460D4802F0C6FCD1
:102290000FE000F03DF848B929460A48FEF745FA34
:1022A00020B1FFF7A1FE0020BDE8F0810A2002F076
:1022B0007BFE301EA6F10101CEB2EAD10120F3E788
:1022C000004800405000002030B589B004460D465B
:1022D000FFF78AFE2A4608A101A8FEF74DF80AA1D9
:1022E00001A8FFF7C7FF20B92A462146074802F098
:1022F00095FC09B030BD000041542B434950534573
:102300004E443D25640D0A003E0000000048004098
:102310000A48008808B90120704708480088084921
:102320000988884203D1002004490880F4E7034863
:102330000088034908800120EEE7000030000020FB
:102340003200002008B50121042001F039FE0E20E2
:10235000ADF8000048208DF803006946014800F000
:1023600011F808BD00080140002004490870044825
:102370000068C0F3420008707047000005000020AC
:10238000080801402DE9F041024600250026002002
:1023900000230024002791F803C00CF00F0591F8EA
:1023A00003C00CF0100CBCF1000F03D091F802C078
:1023B0004CEA050591F800C0BCF1000F31D014685B
:1023C00000202BE04FF0010C0CFA00F3B1F800C034
:1023D0000CEA03069E4220D183004FF00F0C0CFA4A
:1023E00003F7BC4305FA03FC4CEA040491F803C06C
:1023F000BCF1280F06D14FF0010C0CFA00FCC2F81A
:1024000014C00AE091F803C0BCF1480F05D14FF0A9
:10241000010C0CFA00FCC2F810C0401C0828D1D3F3
:102420001460B1F800C0BCF1FF0F34DD5468002027
:102430002EE000F1080C4FF0010808FA0CF3B1F897
:1024400000C00CEA03069E4221D183004FF00F0C1E
:102450000CFA03F7BC4305FA03FC4CEA040491F8B8
:1024600003C0BCF1280F05D100F1080C08FA0CF8E4
:10247000C2F8148091F803C0BCF1480F07D100F1F5
:10248000080C4FF0010808FA0CF8C2F81080401C44
:102490000828CED35460BDE8F0810000F0B50A46AC
:1024A000002300240021002500F00046B6F1004F73
:1024B00002D11D4EF16901E01B4E7168C0F3034566
:1024C00083B200F44016B6F5401F08D121F07061C8
:1024D000154E766826F07066134F7E6012E000F4A9
:1024E0008016B6F5801F06D1032606FA05F4A1432F
:1024F00041F0706106E0460D360103FA06F6B1437D
:1025000041F0706122B1460D360103FA06F63143FF
:1025100000F00046B6F1004F02D1034EF16101E038
:10252000014E7160F0BD0000000001400246002035
:1025300093680B400BB1012000E00020704701615F
:1025400070470AB1016100E04161704700BFFEE7DA
:1025500008B50121442001F033FD1820ADF800003A
:1025600048208DF8030069460648FFF70BFF01205D
:10257000ADF8000028208DF8030069460248FFF7F7
:1025800001FF08BD001801400008014010B50446D5
:1025900014B10120234908702248007858B3102153
:1025A0002148FFF7C3FF50B108211F48FFF7BEFFC6
:1025B00028B101211D48FFF7B9FF01281BD10A20CE
:1025C00002F0F2FC00201749087010211648FFF7AE
:1025D000ADFF08B9012010BD08211348FFF7A6FF81
:1025E00008B90220F7E701211048FFF79FFF0128F3
:1025F00015D10320EFE710210B48FFF797FF0128C3
:102600000DD108210848FFF791FF012807D10121CA
:102610000648FFF78BFF10B901200249087000201F
:10262000D9E7000006000020001801400008014022
:1026300008B50121042001F0C3FC0620ADF800001C
:1026400010208DF8030001208DF80200694604482F
:10265000FFF798FE06210248FFF771FF08BD000052
:102660000008014010B50446207B012802D12068F3
:10267000FDF733FE002020606060A060207310BD75
:102680000246002301230DE002F07F000870D2090A
:102690002AB1087840F080000870491C01E0184613
:1026A00070475B1C042BEFDD4FF0FF30F8E770B58F
:1026B00004460E460025206898B901202073304654
:1026C000FDF7DCFD20602068E0B100206060A660BE
:1026D00003E00020216848556D1CA068A842F8D886
:1026E00010E00220207303E00020216848556D1C93
:1026F000A068A842F8D800206060A068B04201D26B
:102700000020206070BD00002DE9FF4F83B082469D
:102710008B469146159C0025002002900F270190C2
:102720004846FEF714F80FFA80F8B9F1000F03D10C
:10273000012007B0BDE8F08F08F10200384487B2ED
:10274000109808B145F00205129878B145F00405DB
:102750001298FDF7FCFFC0B202901398FDF7F7FF47
:1027600001460298001D0844384487B2119820B1F0
:10277000012804D0022808D104E000BF07E045F09A
:102780000C0504E045F0140501E00220D1E700BF8C
:10279000149808B145F02405BAF1000F02D0BBF13E
:1027A000000F01D10320C4E745F0C0055046FDF7F6
:1027B000CEFF06465846FDF7CAFF3044001D384498
:1027C00087B239462046FFF772FF206808B9042017
:1027D000AFE739462068FEF79BF810216268501C6D
:1027E000606020688154D4E90023D118781FFFF776
:1027F00047FF00B201900198002804DA2046FFF755
:1028000031FF052095E76168019808446060002168
:102810006268501C60602068815404216268501C0A
:102820006060206881544D216268501C606020689F
:10283000815451216268501C606020688154542189
:102840006268501C6060206881546268501C60603F
:102850002068815404216268501C606020688154A3
:102860006168481C6060206845540698010A6268E7
:10287000501C6060206881540698C1B26268501C88
:10288000606020688154C8F307216268501C606052
:10289000206881546268501C6060206800F80280E3
:1028A000D4E90012881842464946FDF72CFF6068BB
:1028B0004044606005F00400B8B30026139808B9DE
:1028C00038A013901298FDF742FF86B2310A626871
:1028D000501C6060206881546268501C60602068F1
:1028E0008654D4E90012881832461299FDF70BFF7E
:1028F0006068304460601398FDF729FF86B2310AA2
:102900006268501C6060206881546268501C60607E
:1029100020688654D4E90012881832461399FDF7CE
:10292000F2FE60683044606000BF05F08000C8B10E
:102930005046FDF70CFF86B2310A6268501C606099
:10294000206881546268501C606020688654D4E915
:102950000012881832465146FDF7D5FE60683044B3
:10296000606000BF05F04000C8B15846FDF7EFFEBB
:1029700086B2310A6268501C6060206881546268C7
:10298000501C606020688654D4E9001288183246D2
:102990005946FDF7B8FE60683044606000BF002013
:1029A000C7E60000000000002DE9FF4F83B083461A
:1029B00017469946139C002500260020029001909E
:1029C0008046BBF1000F03D1012007B0BDE8F08FB6
:1029D00000260AE00498805D232803D00498805DD7
:1029E0002B2801D10220F0E7761C0498805D002896
:1029F000F0D148F03008119808B148F0010806EB12
:102A00000900851C109820B1012804D002280AD1A1
:102A100005E000BF09E048F00208AD1C05E048F001
:102A20000408AD1C01E00320CFE700BF8FB3387866
:102A3000022821D14FF0000A00BF50460AF1010AD6
:102A4000385C7D28F9D1AAF1030A0AF10700029047
:102A50000298A9EB000AE81CA0EB0A012046FFF748
:102A600026FE206808B90420AFE7EA1CA2EB0A01A1
:102A70002068FDF74DFF19E0691D2046FFF717FE9E
:102A8000206808B90420A0E7691D2068FDF740FF11
:102A90000CE0FFE7691D2046FFF709FE206808B932
:102AA000042092E7691D2068FDF732FF6168481C29
:102AB0006060206800F80180D4E90002811828468F
:102AC000FFF7DEFD01900198002804DA2046FFF7A9
:102AD000C9FD052079E76168019808446060C6F384
:102AE00007216268501C6060206881546268501C35
:102AF000606020688654D4E9001288183246049930
:102B0000FDF701FE606830446060109860B14FEAE4
:102B10001B216268501C6060206881546268501CF0
:102B20006060206800F802B0C7B1387802280BD185
:102B3000D4E9001288183946029AFDF772FE6168DE
:102B400002980844606009E0D4E9001288184A46F7
:102B50003946FDF766FE606848446060002034E74F
:102B600070B505460C4604212046FFF7A0FD2068FD
:102B700008B9012070BD70216268501C6060206837
:102B8000815402216268501C6060206881542912BF
:102B90006268501C6060206881546268501C6060EC
:102BA000206885540020E5E770B505460C460421F1
:102BB0002046FFF77CFD206808B9012070BD622126
:102BC0006268501C60602068815402216268501C59
:102BD00060602068815429126268501C606020681F
:102BE00081546268501C6060206885540020E5E7CD
:102BF0002DE9FF5F8046174699460E9C0026B24697
:102C0000B3460025B8F1000F03D1012004B0BDE8A0
:102C1000F09F0BE057F8250008B90220F6E757F8B7
:102C20002500FDF794FD0644681CC5B24D45F1DB57
:102C300009EB4900801C00EB060A0AF10501204659
:102C4000FFF735FD206808B90320DFE782216268BD
:102C5000501C606020688154D4E9000281185046FD
:102C6000FFF70EFD0FFA80FBBBF1000F04DA2046E0
:102C7000FFF7F8FC0420C9E76068584460604FEA39
:102C800018216268501C6060206881546268501C82
:102C90006060206800F80280002524E057F82500D5
:102CA000FDF755FD0646C6F307216268501C6060BB
:102CB000206881546268501C606020688654D4E9A2
:102CC0000023D01857F825103246FDF71CFD606828
:102CD000304460600198C1B26268501C6060206836
:102CE0008154681CC5B24D45D8DB00208EE7F0B595
:102CF00004460D462646012300201060002114E002
:102D0000775C07F07F07106807FB03001060705CBA
:102D100000F0800008B9481CF0BDDB01B3F5001FCE
:102D200002D36FF00100F7E7491CA942E8DB4FF03E
:102D3000FF30F1E72DE9F84380460C4615461E4664
:102D40002F2108F10600FDF7D4FC07460020009073
:102D500017B90120BDE8F8837F1C6A46042108F1F9
:102D60000100FFF7C4FF2520FDF788FA20602068E6
:102D700008B90220EEE725212068FDF7C9FD2422CD
:102D800039462068FDF74DFD243700982C383080F7
:102D90003188481CFDF772FA2860286820B920683D
:102DA000FDF79BFA0320D5E73288511C2868FDF710
:102DB000AFFD328839462868FDF733FD0020C9E7AA
:102DC00001464878022801D001207047887810B168
:102DD0008878012801D1C878F7E7FF20F5E70000DF
:102DE0002DE9FC5F81460D4614461E46DDE90C8B3D
:102DF00099F8000000F00F0A002001900AF0080086
:102E00000090CAF341008BF8000001AA042109F1E7
:102E10000100FFF76CFF4844471C0198022802D3C9
:102E20000AF0010010B1FF20BDE8FC9F78783978E6
:102E300040EA012020802088801C0199884201D925
:102E4000FF20F1E754A1B81CFDF76FFC08B10F207B
:102E5000EAE79BF8000020B101283DD0022877D195
:102E60003BE0009808B1FF20DEE72188481CFDF711
:102E700005FA2860286808B9FF20D5E72288511C88
:102E80002868FDF745FD2288B91C2868FDF7C9FCB4
:102E90000198801E2188401AA8F80000B8F8001098
:102EA000481CFDF7EBF93060306820B92868FDF761
:102EB00014FAFF20B8E7B8F80020511C3068FDF77D
:102EC00027FDB8F80020B4F800C0BB1C0CEB0301D0
:102ED0003068FDF7A6FC4FE000BF2088801C0199F8
:102EE000884201D9FF209FE72088C01C395C2088D8
:102EF000801C385C41EA00210E9801800E9808B9C8
:102F0000FF2091E72188481CFDF7B8F92860286860
:102F100008B9FF2088E72288511C2868FDF7F8FCD3
:102F20002288B91C2868FDF77CFC0198001F2188C5
:102F3000401AA8F80000B8F80010481CFDF79EF9E8
:102F40003060306828B92868FDF7C7F9FF206BE7C3
:102F500010E0B8F80020511C3068FDF7D9FCB8F833
:102F60000020B4F800C03B1D0CEB03013068FDF7F6
:102F700058FC01E0FF2057E700BF2B212846FDF752
:102F8000B8FB20B923212846FDF7B3FB08B1FF2089
:102F90004AE7002048E700002463726571000000E2
:102FA00001464878022801D001207047887820B96E
:102FB000C8780A2801D10020F7E70120F5E701468B
:102FC0004878022801D001207047887820B9C87855
:102FD0000A2801D10020F7E70120F5E701464878EB
:102FE000022801D001207047887820B9C8780A28C3
:102FF00001D10020F7E70120F5E7024650780228CA
:1030000001D0012070479078B0EB112F05D1D07816
:10301000CBB2984201D10020F4E70120F2E7000092
:10302000F8B50446FF2720780511012D01DB0E2D90
:1030300001DD3846F8BD032D24D1002000906A46FA
:103040000421601CFFF753FE2044461C0098022810
:1030500003D3207800F0010008B1FF20EAE7707880
:10306000317840EA0120801C0099884201D9FF2074
:10307000E0E706A1B01CFDF758FB08B10F2700E000
:10308000032700E02F463846D4E70000246372652A
:10309000710000000146FF208A78A2B9CA78142A7C
:1030A00011D10A7932B1012A05D0022A04D0802A2E
:1030B00006D103E000BF00BF002003E0012001E0D3
:1030C000022000BF00BF7047014601208A781AB96C
:1030D000CA781E2A00D10020704700BFFEE700001A
:1030E000E8B91E49096821F470611C4A1160114653
:1030F000096841F4807111600021194A1160174973
:10310000096821F47041154A11601146096841F4BB
:10311000805111600021134AC2F8AC111CE00F4924
:10312000096821F470610D4A11601146096841F483
:103130008071116001210A4A11600849096821F46F
:103140007041064A11601146096841F480511160CE
:103150000121044AC2F8AC11704700000408014084
:10316000A80121420000214210B504460E48006823
:1031700020F470600C4908600846006840F48070D4
:1031800008600020094908600748006820F4704082
:10319000054908600846006840F410400860214670
:1031A000034801F096FA10BD04080140A80121422D
:1031B000002C014010B504460E48006820F4704011
:1031C0000C4908600846006840F480500860002000
:1031D000094908600748006820F4706005490860E4
:1031E0000846006840F4106008602146034801F07A
:1031F0006EFA10BD04080140AC012142002C0140D0
:10320000E8B91E49096821F00F011C4A11601146F6
:10321000096841F0010111600021194A1160174944
:10322000096821F0F001154A11601146096841F062
:10323000300111600021134AC2F8A4111CE00F49AB
:10324000096821F00F010D4A11601146096841F02B
:103250000101116001210A4A11600849096821F041
:10326000F001064A11601146096841F03001116011
:103270000121044AC2F8A41170470000040801406B
:10328000A00121420000214210B504460E4800680A
:1032900020F00F000C4908600846006840F001006B
:1032A00008600020094908600748006820F0F00025
:1032B000054908600846006840F090000860214613
:1032C000034801F002FA10BD04080140A0012142A8
:1032D000002C014010B504460E48006820F0F000B4
:1032E0000C4908600846006840F030000860002083
:1032F000094908600748006808490840054908600E
:103300000846006840F0090008602146044801F0C2
:10331000DAF910BD04080140A4012142F0FFFF0FBB
:10332000002C0140E8B91E49096821F00F011C4A30
:1033300011601146096841F0010111600021194A2C
:1033400011601749096821F0F001154A1160114612
:10335000096841F0100111600021134AC2F8A4115C
:103360001CE00F49096821F00F010D4A1160114658
:10337000096841F00101116001210A4A1160084900
:10338000096821F0F001064A11601146096841F010
:10339000100111600121044AC2F8A4117047000015
:1033A000040C0140A08121420080214210B5044656
:1033B0000E48006820F00F000C49086008460068BD
:1033C00040F00100086000200949086007480068D3
:1033D00020F0F000054908600846006840F09000C1
:1033E00008602146034801F074F910BD040C014047
:1033F000A08121420008004010B504460E48006834
:1034000020F0F0000C4908600846006840F0100009
:1034100008600020094908600748006820F00F0094
:10342000054908600846006840F009000860214628
:10343000034801F04CF910BD040C0140A481214265
:1034400000080040E8B91E49096821F070611C4A73
:1034500011601146096841F0807111600021194A1C
:1034600011601749096821F07041154A1160114631
:10347000096841F0805111600021134AC2F89C1183
:103480001CE00F49096821F070610D4A1160114676
:10349000096841F08071116001210A4A11600849F0
:1034A000096821F07041064A11601146096841F02F
:1034B000805111600121044AC2F89C11704700003C
:1034C000000C0140988121420080214210B5044641
:1034D0000E48006820F070600C49086008460068DB
:1034E00040F08070086000200949086007480068C3
:1034F00020F07040054908600846006840F0104020
:1035000008602146034801F0E0F810BD000C0140BE
:10351000988121420008004010B504460E4800681A
:1035200020F070400C4908600846006840F0805068
:1035300008600020094908600748006820F07060B2
:10354000054908600846006840F0106008602146A0
:10355000034801F0B8F810BD000C01409C812142E5
:10356000000800407047000070B5002100230F22C2
:10357000C47804B3154C246804F4E064C4F5E06432
:10358000210AC1F10403CA40447804FA03F18478A3
:103590001440214309010E4C0678A155047804F02B
:1035A0001F050124AC4005786D11AD0005F1E02543
:1035B000C5F8004109E0047804F01F050124AC407F
:1035C000044D0678761145F8264070BD0CED00E0FC
:1035D00000E400E080E100E002490143024A11609A
:1035E000704700000000FA050CED00E030B58BB02C
:1035F00000200790089009900A90012530A032A37E
:1036000033A235A10090404801F0E4FA07A8002158
:1036100002910391CDE9041000912B0228A201919F
:1036200029A12BA0FFF770F8002842D1089A91B287
:103630000798FEF749FEFA20FEF7E4FC0446002C4A
:1036400033D02046FFF7ECFC02282ED12046FFF7AE
:10365000B7FB062823D2DFE800F003090E13181D7C
:103660002AA1294801F0B6FA00251DE02CA1264820
:1036700001F0B0FA18E031A1234801F0ABFA13E0F1
:1036800037A1214801F0A6FA0EE03DA11E4801F045
:10369000A1FA09E043A11C4801F09CFA04E04CA106
:1036A000194801F097FA00BF00BF07A8FEF7DAFF3C
:1036B00003E04EA1144801F08DFA28460BB030BD4E
:1036C00073746D3332000000746573740000000081
:1036D0007A6E7863000000004F6E654E65745F443B
:1036E00065764C696E6B0D0A50524F49443A20255D
:1036F000732C09415549463A2025732C09444556F7
:1037000049443A25730D0A0000380140546970732A
:103710003A09C1ACBDD3B3C9B9A60D0A0000000077
:103720005741524E3A09C1ACBDD3CAA7B0DCA3BAC7
:10373000D0ADD2E9B4EDCEF30D0A00005741524EA0
:103740003A09C1ACBDD3CAA7B0DCA3BAB7C7B7A802
:10375000B5C4636C69656E7469640D0A000000008D
:103760005741524E3A09C1ACBDD3CAA7B0DCA3BA87
:10377000B7FECEF1C6F7CAA7B0DC0D0A0000000004
:103780005741524E3A09C1ACBDD3CAA7B0DCA3BA67
:10379000D3C3BBA7C3FBBBF2C3DCC2EBB4EDCEF318
:1037A0000D0A00005741524E3A09C1ACBDD3CAA719
:1037B000B0DCA3BAB7C7B7A8C1B4BDD328B1C8C8D5
:1037C000E7746F6B656EB7C7B7A8290D0A000000D4
:1037D0004552523A09C1ACBDD3CAA7B0DCA3BACE98
:1037E000B4D6AAB4EDCEF30D0A0000005741524EF4
:1037F0003A094D5154545F5061636B6574436F6E69
:103800006E656374204661696C65640D0A00000092
:1038100070B588B005460C460020049005900690CF
:10382000079023462A4610A1174801F0D3F92046F5
:10383000FCF78DFF064604A80121002200923346C2
:10384000CDE901210390224629460A20FFF7ACF872
:1038500038B9059A91B20498FEF736FD04A8FEF730
:1038600001FF08B070BD00005075626C697368207C
:10387000546F7069633A2025732C204D73673A208A
:1038800025730D0A00000000003801402DE9F04FBB
:103890008FB0814600200B900C900D900E900A90F6
:1038A0000990089007900027069000260025824680
:1038B0004846FFF7B5FB0746F81E0D2871D2DFE832
:1038C00010F0220089019201AC01C8017000D10101
:1038D0007000DF017000700070000D0007AB0AAAD5
:1038E00009A94846FFF726FA064646B9BDF81C0066
:1038F0000090F0A1F848DDE9092301F06BF90BA86D
:10390000FEF7B0FECDE1F54806A907AA0AABCDE95E
:103910000021029008AA09A94846FFF761FA064665
:10392000002E1AD1BDF81C000A99CDE90010BDF88F
:103930002030EBA1E848099A01F04CF90A9801F00F
:10394000B1FA8046B8F1000F08D101F085FA83463C
:103950005A46F2A1E04801F03DF93AE1F4A14046AF
:1039600001F080FA0446F4A1DB48226A01F032F942
:10397000F6A1D948226901F02DF9F7A12069FCF7D9
:10398000D4FE78B1F5A1404601F06CFA04466069B6
:1039900018B16420FEF714FB18E10020FEF7C6FA08
:1039A00014E17BE1EFA12069FCF7BFFE70B1EBA150
:1039B000404601F057FA0446606918B16420FEF7EA
:1039C000F0FA03E10020FEF7B1FAFFE0E7A1206979
:1039D000FCF7ABFE70B1E1A1404601F043FA0446AA
:1039E000606918B15020FEF7BEFAEFE00020FEF744
:1039F0009DFAEBE0DFA12069FCF797FE70B1D7A13B
:103A0000404601F02FFA0446606918B15020FEF7D5
:103A1000B9FADBE00020FEF789FAD7E0D7A12069E8
:103A2000FCF783FE002865D0CCA1404601F01AFACD
:103A3000044660690028AFD00120D1490870FEF724
:103A400087FD55E0CE48007810B1FEF72DFA01E071
:103A500001F0FEF80121CB48FEF768FD01281AD1DC
:103A60000020FEF763FA0020C7490860C7490860D4
:103A7000C7A1994801F0AEF8C4480368C248C9A17B
:103A80000268CD48FCF778FCCB49CCA0FFF7C0FE1C
:103A9000FEF7AAFA2DE00020FEF778FD022827D1D4
:103AA000B748007880F00100B549087008460078F2
:103AB00030B10120B54908600020B349086005E035
:103AC0000020B24908600120AF490860B0A18248D7
:103AD00001F080F8AD480368AB48B2A10268B6486F
:103AE000FCF74AFCB449B5A0FFF792FEFEF77CFA5A
:103AF000A8E76BE0B4A12069FCF717FE002865D0A9
:103B000096A1404601F0AEF90446606900285DD0F8
:103B100000209B490870FEF71BFD55E0984800788F
:103B200010B901F095F801E0FEF7BEF901219548C2
:103B3000FEF7FCFC01281AD10020FEF7F7F900205F
:103B4000914908609149086091A1634801F042F8E9
:103B50008E4803688C4893A102689748FCF70CFCD8
:103B6000954996A0FFF754FEFEF73EFA2DE000209F
:103B7000FEF70CFD022827D18148007880F0010073
:103B80007F4908700846007830B901207E490860F6
:103B900000207E49086005E000207B490860012084
:103BA0007A4908607AA14C4801F014F87748036814
:103BB00075487CA102688048FCF7DEFB7E497FA047
:103BC000FFF726FEFEF710FAA8E700BF404601F017
:103BD00017F966E04846FFF7E3F918B97BA13E48BC
:103BE00000F0F8FF5DE04846FFF7F8F9A0B97FA1C3
:103BF000394800F0EFFF0BA90A20FEF7D5FF58B9AE
:103C000080A1354800F0E6FF0C9A91B20B98FEF7C0
:103C10005BFB0BA8FEF726FD43E0304801884846D1
:103C2000FFF7EBF9A0B97DA12B4800F0D3FF0BA95A
:103C30000A20FEF795FF58B97EA1274800F0CAFF79
:103C40000C9A91B20B98FEF73FFB0BA8FEF70AFD0A
:103C500027E04846FFF7B3F918B97DA11E4800F0E8
:103C6000B9FF1EE04846FFF715FA20B97EA11A48B1
:103C700000F0B0FF03E083A1174800F0ABFF10E0B5
:103C80004846FFF721FA20B985A1134800F0A2FFAA
:103C900003E08AA1104800F09DFF02E04FF0FF36DC
:103CA00000BF00BFFEF7A0F9701C10B90FB0BDE84F
:103CB000F08F13E1636D6469643A2025732C2072E0
:103CC00065713A2025732C207265715F6C656E3AC0
:103CD0002025640D0A000000003801404E0000203D
:103CE000746F7069633A2025732C20746F70696358
:103CF0005F6C656E3A2025642C207061796C6F6171
:103D0000643A2025732C207061796C6F61645F6C5C
:103D1000656E3A2025640D0A00000000BDE2CEF673
:103D2000CAFDBEDDB3F6B4ED3A5B25735D0A000053
:103D30007461726765740000CFC2B7A2C3FCC1EEA4
:103D4000BCFCD6B5A3BA5B25735D0A00D6B5A3BA91
:103D50005B25735D0A0000007570000076616C756C
:103D6000650000006261636B000000006C656674B2
:103D7000000000007269676874000000627A000049
:103D80004C000020000801404400002048000020B2
:103D90004F6E654E65745F5075626C6973680D0A8D
:103DA000000000007B22786A223A25642C22627A85
:103DB000223A25647D00000098010020546F70694C
:103DC000632F707562000000786A00005469707398
:103DD0003A094D515454205075626C6973682053F0
:103DE000656E64204F4B0D0A00000000546970732B
:103DF0003A09526576205075626C69736852656342
:103E00000D0A0000546970733A0953656E642050BE
:103E100075626C69736852656C0D0A005469707341
:103E20003A09526576205075626C69736852656C08
:103E30000D0A0000546970733A0953656E6420508E
:103E400075626C697368436F6D700D0A0000000045
:103E5000546970733A09526576205075626C6973C3
:103E600068436F6D700D0A00546970733A094D51C3
:103E7000545420537562736372696265204F4B0D11
:103E80000A000000546970733A094D51545420538C
:103E90007562736372696265204572720D0A000073
:103EA000546970733A094D51545420556E537562DC
:103EB000736372696265204F4B0D0A005469707319
:103EC0003A094D51545420556E53756273637269AB
:103ED0006265204572720D0A000000007D210A987B
:103EE000FCF707FC0546A5B1701C90B16D1C06E0FF
:103EF00015F8012B50460AF1010A03A90A54287843
:103F0000302802DB28783928F2DD03A8FCF7E4FB2F
:103F100082460F2F01D0032F05D10998FCF7DDF958
:103F20000A98FCF7DAF900BF0FB0BDE8F08F000087
:103F300070B586B004460D4600260020029003901E
:103F40000490059007E054F826200DA1124800F0D7
:103F500041FE701CC6B2AE42F5DB02A82B462246DB
:103F6000002100901420FEF743FE38B9039A91B265
:103F70000298FEF7A9F902A8FEF774FB06B070BD1F
:103F800053756273637269626520546F7069633A36
:103F90002025730D0A000000003801407047000022
:103FA00029B1064AD2690243044BDA6104E0034AAC
:103FB000D2698243014BDA61704700000010024071
:103FC00029B1064A92690243044B9A6104E0034A0C
:103FD00092698243014B9A617047000000100240D1
:103FE00030B500210022002400232D4D6D6805F01E
:103FF0000C0121B1042905D0082923D105E0294D60
:10400000056022E0274D05601FE0254D6D6805F431
:104010007012234D6D6805F48034022505EB924241
:104020001CB9214D554305600BE01D4D6D6805F42D
:1040300000351DB11C4D5543056002E0194D554337
:10404000056002E0174D056000BF00BF144D6D68AC
:1040500005F0F0010909154D6B5C0568DD40456010
:104060000F4D6D6805F4E061090A104D6B5C456801
:10407000DD4085600A4D6D6805F46051C90A0B4D3D
:104080006B5C4568DD40C560054D6D6805F44041D9
:10409000890B074D6B5CC568B5FBF3F5056130BD59
:1040A0000010024000127A0000093D0007000020C5
:1040B00017000020704710B500F002F810BD000096
:1040C0000CB50020019000903348006840F4803027
:1040D0003149086000BF3048006800F400300090AB
:1040E0000198401C0190009818B90198B0F5A06F94
:1040F000F1D12948006800F4003010B1012000908F
:1041000001E0002000900098012843D12348006876
:1041100040F01000214908600846006820F00300C4
:1041200008600846006840F0020008601A484068CD
:10413000194948600846406848600846406840F4AD
:10414000806048600846406820F47C10486008465B
:10415000406840F4E81048600846006840F080700D
:10416000086000BF0C48006800F000700028F9D01B
:104170000948406820F00300074948600846406845
:1041800040F00200486000BF0348406800F00C00A7
:104190000828F9D10CBD00000010024000200240A8
:1041A000042808D14FF0E021096941F004014FF0E3
:1041B000E022116107E04FF0E021096921F00401DC
:1041C0004FF0E022116170477047000010B51348AE
:1041D000006840F001001149086008464068104935
:1041E00008400E494860084600680E4908400B49DF
:1041F00008600846006820F480200860084640688F
:1042000020F4FE0048604FF41F008860FFF753FF62
:104210004FF000600449086010BD0000001002402B
:104220000000FFF8FFFFF6FE08ED00E000B589B0E2
:104230000121C802FFF7C4FE01210420FFF7C0FEE0
:104240004FF41060ADF8200018208DF823000120F5
:104250008DF8220008A92A48FEF794F86320ADF8EB
:10426000180040F2CF20ADF814000020ADF81A007D
:10427000ADF8160005A9234800F02EFA6020ADF82D
:1042800004000120ADF806000020ADF80800ADF8EC
:104290000A00ADF80C00ADF80E00ADF81000ADF856
:1042A000120001A9174800F0B3F801A9154800F061
:1042B00005F901A9134800F061F901A9114800F0BE
:1042C000B7F901210F4800F07BF801210D4800F0FB
:1042D0008FF808210B4800F0E7F80821094800F0A2
:1042E0003FF90821074800F099F90821054800F036
:1042F000DDF90121034800F06FF809B000BD0000AE
:1043000000080140002C014000B589B001210420C3
:10431000FFF746FE01210820FFF752FE4FF47070B0
:10432000ADF8200018208DF8230001208DF8220020
:1043300008A92148FEF726F86320ADF8180040F2DE
:10434000CF20ADF814000020ADF81A00ADF816002B
:1043500005A91A4800F0C0F96020ADF8040001205A
:10436000ADF806000020ADF80C0001A9134800F0DC
:104370004FF801A9114800F0A1F801A90F4800F079
:10438000FDF801A90D4800F053F908210B4800F091
:104390008BF80821094800F0E3F80821074800F0ED
:1043A0003DF90821054800F081F90121034800F09A
:1043B00013F809B000BD0000000C014000080040E7
:1043C00021B1028842F08002028004E002884FF6A8
:1043D0007F731A400280704721B1028842F00102C7
:1043E000028004E002884FF6FE731A400280704794
:1043F00031B1B0F8442042F40042A0F8442005E076
:10440000B0F84420C2F30E02A0F844207047000028
:1044100070B5002400220023058C4FF6FE7635404F
:104420000584028C8388048B4FF68F752C40B51E53
:104430002C400D882C43751E2A400D892A434D8837
:104440002A43144DA8420BD0134DA84208D0134D57
:10445000A84205D0124DA84202D0124DA84213D155
:104460004FF6F7752A404D892A434FF6FB752A40CF
:104470008D882A434FF6FF652B404FF6FF552B40A2
:104480008D892B43CD892B4383800483CD888586FA
:10449000028470BD002C0140003401400040014006
:1044A00000440140004801400A460021018B4FF6BC
:1044B000F7731940114301837047000070B5002461
:1044C00000220023058C4FF6EF7635400584028CE0
:1044D0008388048B48F6FF752C404FF6FF452C402F
:1044E0000D884FF6FF7606EA05252C434FF6DF755B
:1044F0002A400D8906EA05152A434D8806EA051566
:104500002A43154DA84202D0144DA8421DD14FF6A2
:104510007F752A404D894FF6FF7606EA05152A4336
:104520004FF6BF752A408D8806EA05152A434FF6D7
:10453000FF352B404FF2FF752B408D8906EA85052C
:104540002B43CD8906EA85052B4383800483CD88E0
:104550000587028470BD0000002C0140003401403A
:104560000A460021018B4FF2FF7319404FF6FF738B
:1045700003EA0223194301837047000070B5002449
:1045800000220023058C4FF6FF6635400584028C1F
:104590008388848B4FF68F752C404FF6FC752C402A
:1045A0000D882C434FF6FF552A400D894FF6FF76B4
:1045B00006EA05252A434D8806EA05252A43154DB6
:1045C000A84202D0144DA8421DD14FF2FF752A40D7
:1045D0004D894FF6FF7606EA05252A434FF6FF354B
:1045E0002A408D8806EA05252A434EF6FF752B40A2
:1045F0004DF6FF752B408D8906EA05152B43CD89B5
:1046000006EA05152B4383808483CD888587028441
:1046100070BD0000002C0140003401400A4600211A
:10462000818B4FF6F7731940114381837047000067
:1046300070B5002200230024058C4EF6FF7635402D
:104640000584038C8488828B48F6FF752A404FF6D8
:10465000FF452A400D884FF6FF7606EA05252A43D6
:104660004DF6FF752B400D8906EA05352B434D8825
:1046700006EA05352B430B4DA84202D00A4DA8424D
:1046800008D14BF6FF752C408D894FF6FF7606EA70
:1046900085152C4384808283CD88A0F84050038404
:1046A00070BD0000002C0140003401400A4600218A
:1046B000818B4FF2FF7319404FF6FF7303EA022319
:1046C00019438183704781867047018770478187CE
:1046D0007047A0F840107047002202881D4B984296
:1046E0000ED01D4B98420BD0B0F1804F08D01B4B21
:1046F000984205D01A4B984202D01A4B984204D1E6
:104700004FF68F731A404B881A43174B984207D0C5
:10471000164B984204D04FF6FF431A40CB881A43F9
:1047200002808B8883850B8803850A4B98420BD0C7
:10473000094B984208D00E4B984205D00D4B984239
:1047400002D00D4B984201D10B7A0386012383825C
:1047500070470000002C014000340140000400407C
:1047600000080040000C0040001000400014004011
:1047700000400140004401400048014008B50121CB
:104780000820FFF71DFC01210846FFF719FC012155
:104790000648FDF783FE3820ADF8000048208DF86C
:1047A000030069460248FDF7EDFD08BD0002300038
:1047B000000C014000200449087004480068C0F360
:1047C000C20008707047000004000020080C01407F
:1047D00010B540F225511D4800F086F810B31B4873
:1047E00000F03EF9C4B21A48008800F40040C8B98D
:1047F0001748008800F4804060B10A2C03D00020E4
:104800001349088020E01248008840F40040104915
:10481000088019E00D2C06D10D48008840F4804036
:104820000B49088010E00A480088C0F30D000949D0
:104830000C5407480088401C054908800846008839
:10484000C72801DD0020088010BD000000380140AD
:1048500034000020D000002010B540F225510E4851
:1048600000F042F8B0B10D480088802802D3002043
:104870000A4908800848001D0088C1B2074802881C
:104880000088401C054B18800548815420210248AF
:1048900000F008F810BD0000004800403000002083
:1048A0005000002001F40072B2F5007F00D100BF7B
:1048B000CA430280704721B1828942F4005282814A
:1048C00004E082894DF6FF731A40828170470246E8
:1048D0000020B1F5007F00D100BF13880B400BB161
:1048E000012000E00020704770B50246002400233C
:1048F0000025002040F66A16B14200D100BFC1F386
:10490000421501F01F03012606FA03F3012D02D11F
:104910009689334006E0022D02D1168A334001E029
:10492000968A33400C12012606FA04F416883440A5
:1049300013B10CB1012000E0002070BDF0B50346BA
:10494000002400260025002040F66A17B94200D155
:1049500000BF1846C1F3421401F01F06012707FAF1
:1049600006F5012C01D10C3004E0022C01D11030ED
:1049700000E014301AB107682F43076002E00768AF
:10498000AF430760F0BD00002DE9F04786B0054653
:104990000E460024A24600BFA1460027B08900B100
:1049A00000BF2F462C8A4CF6FF700440F088044369
:1049B0002C82AC894EF6F3100440B088318908434C
:1049C000718908430443AC81AC8A4FF6FF40044030
:1049D000B0890443AC8201A8FFF702FB1F4887425D
:1049E00002D1DDF810A001E0DDF80CA0A88900F4E8
:1049F000004040B10AEBCA0000EB0A1031684900E0
:104A0000B0FBF1F807E00AEBCA0000EB0A103168CE
:104A10008900B0FBF1F86420B8FBF0F00401200934
:104A2000642101FB1089A88900F4004040B13220C4
:104A300000EBC900B0FBF1F000F00700044308E010
:104A4000322000EB09106421B0FBF1F000F00F0000
:104A500004432C8106B0BDE8F08700000038014017
:104A600001468888C0F308007047C1F308028280BD
:104A7000704700BFFEE7000010B586B00446012174
:104A80000420FFF79DFA01218803FFF799FA182007
:104A90008DF817004FF40070ADF8140003208DF866
:104AA000160005A91E48FDF76DFC04208DF81700BF
:104AB0000002ADF8140003208DF8160005A918486F
:104AC000FDF760FC01940020ADF810000C20ADF85B
:104AD0000E000020ADF80C00ADF80A00ADF808009B
:104AE00001A91048FFF750FF01210E48FFF7E3FE30
:104AF000012240F225510B48FFF720FF25208DF8B9
:104B0000000001208DF8030000208DF80100022034
:104B10008DF802006846FEF727FD06B010BD0000C4
:104B2000000801400038014010B586B0044601215C
:104B30000820FFF745FA01218804FFF731FA182011
:104B40008DF817004FF48060ADF8140003208DF845
:104B5000160005A91D48FDF715FC04208DF8170067
:104B60004002ADF8140003208DF8160005A917487F
:104B7000FDF708FC01940020ADF810000C20ADF802
:104B80000E000020ADF80C00ADF80A00ADF80800EA
:104B900001A90F48FFF7F8FE01210D48FFF78BFE32
:104BA000012240F225510A48FFF7C8FE27208DF860
:104BB000000001208DF8030000208DF801008DF821
:104BC00002006846FEF7D0FC06B010BD000C0140A4
:104BD000004800400FB430B5CBB0054601AC50A83A
:104BE00000904FF4947101A8009B4F9AFBF7AAFB29
:104BF000002000900BE014F8011B2846FFF735FF5A
:104C000000BF40212846FFF762FE0028F9D0207837
:104C10000028F0D14BB030BC5DF814FB2DE9F04119
:104C200007460C46154600260DE014F8011B3846D1
:104C3000FFF71BFF00BF40213846FFF748FE002862
:104C4000F9D0701C86B2AE42EFDBBDE8F081000007
:104C500070B500250024FFF7ADFD1F48007848B966
:104C6000012C03D10020FDF761F934E03C20FDF771
:104C7000A7F930E0002500241748007801280FD05C
:104C80001548007803280BD013480078042807D073
:104C900011480078062803D03C20FDF791F91AE06E
:104CA0000D480078012803D00B480078032803D171
:104CB0003C20FDF758F90EE007480078042803D09F
:104CC00005480078062803D13C20FDF75BF902E097
:104CD0000020FDF72BF970BD04000020490050EAC8
:104CE000C12018BF04204A0D18BF40F0010040F257
:104CF000FF72B2EB515F08BF40F00200012808BF0D
:104D0000052070472DE9F0414F1E00EBC701044616
:104D1000D1E9000115461E4637F006020DD02A469D
:104D2000334601F021FD7F1E04EBC703D3E90023C6
:104D300001F084FA37F00602F1D1022F25D0042FBA
:104D400013D0062F18BFBDE8F0812A46334601F084
:104D50000BFDD4E90A2301F071FA2A46334601F02B
:104D600003FDD4E9082301F069FA2A46334601F02D
:104D7000FBFCD4E9062301F061FA2A46334601F030
:104D8000F3FCD4E9042301F059FA2A46334601F032
:104D9000EBFCD4E9022301F051FA2A46334601F034
:104DA000E3FCD4E90023BDE8F04101F047BA00007C
:104DB000002213461046014901F0FCBA0000F03F02
:104DC00001F03CBA002213461046114601F0F2BA37
:104DD00040F2013200204FF0E04102F009B800003B
:104DE000024A0020110702F003B8000001FDFFFF96
:104DF00030380A2801D20120704700207047000097
:104E000070B5044622E02568A08900F4807020B9BE
:104E1000A06810B1A068FFF7F3FFA08900F48070CC
:104E200028B9206918B10B49206909688847A08909
:104E300000F4007028B9206A18B10649206A096890
:104E4000884720460349096888472C46002CDAD158
:104E500070BD00004000002001480068704700005D
:104E60003800002070B505460E46AC6800E02468A6
:104E70002CB13146206A00F04FF80028F7D12046C7
:104E800070BD000010B52820054909688847044610
:104E90001CB128212046FBF75DFD204610BD000017
:104EA0003C00002010B5044600221146204600F0C8
:104EB00001F810BD2DE9F04780460D461646002446
:104EC000FFF7E0FF07460020124908600FB9BDE870
:104ED000F087404601F056F981464946384600F0D1
:104EE00007FC044624B93846FFF78AFF0020EEE7A6
:104EF00066B1204601F046F90446207830B13846C4
:104F0000FFF77EFF034804600020E0E705B12C6056
:104F10003846DCE73800002070B504460D462CB951
:104F2000AC4201D0012070BD0020FCE70DB901208A
:104F3000F9E705E0207808B90020F4E7641C6D1C4F
:104F40002078FBF7F1F906462878FBF7EDF9864261
:104F5000F0D02078FBF7E8F906462878FBF7E4F96B
:104F6000301AE0E710B56FF00400FFF719F90A48AE
:104F70000068C0080949B0FBF1F0094908800846FB
:104F8000008800EB4001C1EBC0104FF6FF7101EA51
:104F9000C0000449088010BD1C00002040420F00E2
:104FA0000000002002000020014609B900207047DF
:104FB0001148008848434FF0E02358610020986171
:104FC0001846006940F00100186100BF4FF0E02072
:104FD000026902F0010018B102F480300028F5D017
:104FE0004FF0E020006920F001004FF0E02318614D
:104FF0000020986100BFDAE70200002008B51F48D2
:105000000068009000244FF4A060FEF7E5FAFFF777
:10501000A9FFFDF70DFBFDF79BFA4FF4E130FFF719
:105020002BFD4FF4E130FFF77FFDFFF7FFF8FFF7AF
:105030006BF9FFF7A3FBFDF785F911A11448FFF702
:10504000C9FDFDF707F803E04FF4FA70FFF7ACFF76
:10505000FEF7CCFA0028F7D101216846FEF768FF79
:105060000AE00320FCF7CEFF044614B12046FEF709
:105070000DFC0A20FFF798FFF3E700007C6E0008A4
:1050800020B3F5CABCBBAFB3C9B9A6A3A10D0A0032
:10509000003801402DE9F04705460C4620785B2892
:1050A00004D0264804600020BDE8F0870520E860B1
:1050B000601C01F067F8044620785D2801D1601C6F
:1050C000F2E7FFF7DFFE0646A860A86808B90020EF
:1050D000EAE7204601F056F880464146304600F0A7
:1050E00007FB074601F04EF804460CB90020DBE749
:1050F00017E0FFF7C7FE071E00D1D5E737607E60D7
:105100003E46601C01F03EF881464946304600F0BC
:10511000EFFA804601F036F804460CB90020C3E7E8
:1051200000BF20782C28E4D020785D2801D1601CB5
:10513000BAE7024804600020B6E70000380000200B
:10514000014600220878302806DB0878392803DC7D
:1051500008783038024415E00878412806DB0878E2
:10516000462803DC0878373802440BE008786128C9
:1051700006DB0878662803DC08785738024401E02B
:10518000002070471201491C0878302806DB087897
:10519000392803DC08783038024415E008784128C3
:1051A00006DB0878462803DC0878373802440BE031
:1051B0000878612806DB0878662803DC0878573809
:1051C000024401E00020DCE71201491C0878302885
:1051D00006DB0878392803DC08783038024415E00B
:1051E0000878412806DB0878462803DC0878373839
:1051F00002440BE00878612806DB0878662803DCA7
:1052000008785738024401E00020BAE71201491C2F
:105210000878302806DB0878392803DC087830382D
:10522000024415E00878412806DB0878462803DCAC
:105230000878373802440BE00878612806DB0878E4
:10524000662803DC08785738024401E0002098E71C
:10525000104696E72DE9F04F8BB083468A46002032
:10526000044605460026674F002188468946099076
:10527000012008909AF800002D2802D1624F0AF10F
:10528000010A9AF80000302801D10AF1010A9AF8BF
:105290000000312822DB9AF8000039281EDC00BF0C
:1052A0001AF8011BA1F1300001F00BFA0022574B54
:1052B000CDE906012046294601F056FACDE9040160
:1052C000DDE9062300F0BAFF04460D469AF8000017
:1052D000302803DB9AF800003928E1DD9AF8000055
:1052E0002E2830D19AF8010030282CDB9AF80100E2
:1052F000392828DC0AF1010A00BF1AF8011BA1F1C4
:10530000300001F0DEF90022404BCDE906012046D5
:10531000294601F029FACDE90401DDE9062300F070
:105320008DFF04460D460022364B4046494601F0AB
:1053300041FC804689469AF80000302803DB9AF841
:1053400000003928D9DD9AF80000652803D09AF8C2
:105350000000452823D10AF1010A9AF800002B2801
:1053600002D10AF1010A08E09AF800002D2804D1C0
:105370004FF0FF3008900AF1010A08E01AF8010B1B
:105380003038099901EB810100EB410009909AF84E
:105390000000302803DB9AF800003928EEDDDDE953
:1053A000082101FB02F001F08CF942464B46CDE9A1
:1053B000000100F043FF02460B46CDE90201002048
:1053C000124900F0F3F922462B46CDE9060130469A
:1053D000394601F0C9F9CDE90401DDE9062301F000
:1053E000C3F904460D46CBE906452046294601F09F
:1053F00039F9CBF814000320CBF80C0050460BB061
:10540000BDE8F08F0000F03F0000F0BF0000244036
:105410002DE9F04706460C4620787B2804D040480A
:1054200004600020BDE8F0870620F060601C00F0FA
:10543000A9FE044620787D2801D1601CF2E7FFF721
:1054400021FD0546B060B06808B90020EAE72046B3
:1054500000F098FE80464146284600F063F8074673
:1054600000F090FE04460CB90020DBE728692862B2
:105470000020286120783A2803D0294804600020C1
:10548000D0E7601C00F07EFE80464146284600F0D2
:105490002FF9074600F076FE04460CB90020C1E75C
:1054A00031E0FFF7EFFC071E00D1BBE72F607D6006
:1054B0003D46601C00F066FE81464946284600F0E5
:1054C00031F8804600F05EFE04460CB90020A9E7E2
:1054D000286928620020286120783A2803D01048E3
:1054E000046000209EE7601C00F04CFE81464946A7
:1054F000284600F0FDF8804600F044FE04460CB952
:1055000000208FE700BF20782C28CAD020787D2883
:1055100001D1601C86E702480460002082E7000099
:10552000380000202DE9F05F8346884608F1010429
:10553000002798F80000222805D06A48C0F80080AB
:105540000020BDE8F09F04E014F8011B5C2900D1A5
:10555000641C2078222804D0207810B1781C071E03
:10556000F2D1781C6049096888478146B9F1000F7B
:1055700001D10020E5E708F101044D469EE02078C6
:105580005C2804D014F8010B05F8010B96E0641CAC
:105590002078722818D006DC622809D066280BD043
:1055A0006E287DD10CE0742812D07528F9D113E053
:1055B000082005F8010B7FE00C2005F8010B7BE0CB
:1055C0000A2005F8010B77E00D2005F8010B73E0C8
:1055D000092005F8010B6FE0601CFFF7B1FD0646DE
:1055E000241DB6F55C4F02D3B6F5604F00D306B963
:1055F00062E0B6F5584F1CD3B6F55C4F19D260780F
:105600005C2802D1A078752800D055E0E01CFFF797
:1056100097FD8246A41DBAF55C4F02D3BAF5604FE0
:1056200000D349E0C6F30901504661F39F2000F51D
:1056300080360427802E01D2012708E0B6F5006FDE
:1056400001D2022703E0B6F5803F00D203273D4494
:10565000012F20D0022F15D0032F0AD0042F24D1E0
:1056600006F0BF0040F08001681E05460170B609D3
:1056700000BF06F0BF0040F08001681E05460170C3
:10568000B60900BF06F0BF0040F08001681E054665
:105690000170B60900BF1548C05D3043C1B200E0DB
:1056A00006E0681E0546017000BF00BF3D4403E0F0
:1056B000207805F8010B00BF00BF641C2078222869
:1056C00003D0207800287FF45AAF0020287020787B
:1056D000222800D1641CCBF810900420CBF80C00D9
:1056E00020462EE7380000203C000020806E000895
:1056F00070B505460C460CB9002070BD042224A1EB
:105700002046FBF743F818B90220E860201DF4E7B3
:10571000052221A12046FBF739F818B90020E860DE
:10572000601DEAE704221EA12046FBF72FF820B9EE
:105730000120E8606861201DDFE72078222804D17D
:1057400021462846FFF7EEFED7E720782D2805D022
:105750002078302807DB2078392804DC21462846C9
:10576000FFF778FDC9E720785B2804D12146284659
:10577000FFF790FCC1E720787B2804D1214628461A
:10578000FFF746FEB9E7084804600020B5E70000CF
:105790006E756C6C0000000066616C736500000043
:1057A0007472756500000000380000202DE9F04D8E
:1057B0001D460C4698B0174621F0004123F00043E7
:1057C000002814BF4FF0010C4FF0000C0CEB440C00
:1057D000FE4A0CEB02064FEA620C66452BD33E00F4
:1057E00018BF012606EB45061644F94A964222D315
:1057F000F84A53EA070C02D0944205D148B918B0D0
:1058000000201146BDE8F08D002808BF4FF0000CC5
:1058100001D04FF0010C0CEB440212F5001F0AD826
:10582000002F14BF4FF0010C4FF0000C0CEB4502A1
:1058300012F5001F07D918B03A462B462146BDE89D
:10584000F04DFFF7BDBA0022DFF88CA3002CB8BFE3
:10585000534526DADFF884C36345A8BF022220DA65
:10586000DFF870C39C451CDCDFF874C30CEB235CD1
:10587000BCF1140F08DDCCF1340627FA06FC0CFA53
:1058800006F6BE420DD108E05FB9CCF1140623FA4A
:1058900006FC0CFA06F69E4203D10CF00102C2F19E
:1058A000020251EA000C19D1002D17DA002C18BFA2
:1058B000022A01D0012A07D00220FBF7D8F818B03D
:1058C000BDE8F04DFFF774BA0220FBF7D0F8FFF700
:1058D0006FFA18B081F00041BDE8F08DB7F1000C0F
:1058E0006CD1534525D104F1804212F5801201BFDD
:1058F00000280020B74918B008BFBDE8F08DB548B2
:10590000884207DC002DA1BF6046294618B0BDE8DB
:10591000F08D07E0281E05DA80F0004118B06046DF
:10592000BDE8F08DAF497944D1E9000118B0BDE878
:10593000F08DDFF8A0C2634525D1002D1FDA19B123
:10594000514512D1D8B909E0002840F0EC82A24AB2
:10595000214618B062F31E01BDE8F08D00202146FB
:1059600018B060F31E01BDE8F08D08DA18B02346C8
:10597000BDE8F04D02460020614600F01BBD18B0A6
:105980002146BDE8F08D514518DAB5F1804F0DD0B4
:10599000A5F1005CBCF1FF5C10D1B4F1000C0DDB93
:1059A00018B06146BDE8F04D00F0F5BB234618B0D5
:1059B0000246BDE8F04D194600F0D6BE060024F0C0
:1059C000004C3BD1D9B1514533D1002C06DD002D1F
:1059D000A1BF0020514618B0BDE8F08D002C01DDBC
:1059E000002D1BDB002C13DA002D11DB012A4FF0F8
:1059F000000014BF78497C4918B0BDE8F08D022A38
:105A000018BF002C0AD0012A08D1002C06DA0AE0BF
:105A1000002CB8BF002D11DA012A04D0002018B0E4
:105A20000146BDE8F08D18B000204FF00041BDE800
:105A3000F08DA1F14050B0F17F601AD0012000EB51
:105A4000E47050EA020421D0624C521E4FF0000B69
:105A5000104304BF4FF0000B644C654883427CDD6B
:105A6000644A654893421FDD884217DB002D25DB21
:105A700037E0002C00DA4AB1022A0CBF01204FF0B7
:105A8000FF3018B0BDE8F04D00F01BBE0120FAF762
:105A9000EEFF18B0BDE8F04DFFF794B94D4A8A42C9
:105AA00002DC002D0ADC1CE0814202DA002D18DA4B
:105AB00004E0484B994220DD002D12DD0220FAF768
:105AC000D6FFFFF785F905460E4600225346584695
:105AD000214600F049FE18B066F31E012846BDE8D5
